:030000000208579C
:0C085700787FE4F6D8FD75816D02089EE4
:100B530020202020205354455053202020202020A3
:010B63000091
:10092A00042900000000042D00000000042100003A
:10093A000000042500000000043ABE99999A023387
:10094A0000000656000000000000026A0000065C73
:0A095A00000000000000026C000025
:1007C300AC35AD36EC1202907B9A7A997979784000
:0607D3001200FB1202C936
:1007D900AB07AA067C277D10120363EF2430F53896
:1007E9007C277D10AF03AE02120363AA04AB057C1C
:1007F900037DE8AF03AE02120363EF2430F5317CC9
:10080900037DE8AF03AE02120363AA04AB057C00C3
:100819007D64AF03AE02120363EF2430F5327C002E
:100829007D64AF03AE02120363AA04AB057C007DAD
:100839000AAF03AE02120363EF2430F5377C007D63
:0E0849000AAF03AE02120363ED2430F539222C
:0E0B1900C2A1C2A2120B278F80120B27D2A2FC
:060B2700000000000022A6
:0E0B64007F307E02EF1FAC0670011E4C70F653
:010B72002260
:100A8A00E4FDFCC3ED9FEC9E5015E4FBFA0BBB00A2
:0F0A9A00010AEB64954A70F50DBD00010C80E474
:010AA900222A
:100B0400C200C2A0D2A1D2A2120B27E58033920068
:040B1400C2A2A200D7
:010B180022BA
:070B2D007F05120A8A7F38E0
:0D0B3400120B0440FBC2A0120B19C2A2223A
:0D0B9000120B0440FBD2A0120B19C2A222CE
:100A64007F38120B347F057E00120B2F120B2D12D0
:100A74000B2D7F08120B347F0C120B347F04120BE6
:060A8400347F01020B3477
:100965007C007D641203638C0A8D0BAE0AAF0B7C91
:10097500007D0A120363EF2430F50EFB7D0F7F0225
:02098500AC07BD
:10098700BC01027E80BC02027EC0EE2D14FEFF1267
:070997000B34AF03020B90CB
:100A0800E4FCBF01027E80BF02027EC0EE2D14FE10
:100A1800AF060E120B3412034AFF6012EC6410602A
:0E0A28000D0C120B90740129F9E43AFA80E2E9
:010A3600229D
:0D0B9D000000000000000000000000002229
:0F0B7300D295D294120B9DC295120B9DC2942263
:0C0BB700C295D294120B9DD295020B9DAA
:0E0B8200A2009295D294120B9DC294020B9D7C
:0D0BAA00D294120B9DA295C294120B9D22B5
:050AAA00120B737FA692
:100AAF00E4FEEF25E0FF9295D294120B9DC29412B3
:090ABF000B9D0EBE08EC020BAA0F
:100AC800E4FFD295FEEF25E0FFD294120B9DA2958C
:0D0AD800E4334207C294120B9D0EBE08E8E5
:010AE50022EE
:100B4100AC07120AAAAF04120AAFAF05120AAF022C
:020B51000BB7E0
:020AE600AD075A
:100AE800120AAAAF05120AAF120B737FA7120AAF38
:0B0AF800120AC8D200120B82120BB7CA
:010B030022CF
:1009D700120AAA7F32120AAF120B737FA7120AAF4D
:1009E700E4FD120AC874622DF8A607BD0504D200FB
:1009F7008002C200120B820DBD06E7120BB7020B75
:010A0700648A
:100A37007D0B7F31120B417D087F2C120B417F2DDF
:100A4700120B417D807F2E120B41E4FD7F1E120B9E
:0D0A5700417F1F120B417D057F20020B41E6
:1003DE00E4F50AF50BE563FE7C00E42562F536ECE8
:1003EE003EF535C3648094805011750A00750B017B
:1003FE00C3E49536F536E49535F5351207C3E56B4E
:10040E0025E02456F8A60A08A60BE50B6401450A5A
:10041E00AC3270501202957BCD7ACC79CC783D12ED
:10042E0000FBC004C005C006C007AC31E412029543
:10043E00D003D002D001D00012000AC004C005C003
:10044E0006C007AC37E41202957B0A7AD779237877
:10045E003C1200FBD003D002D001D00012000A12D1
:10046E00027A804CE41202957BCD7ACC79CC783D21
:10047E001200FBC004C005C006C007AC31E4120276
:10048E0095D003D002D001D00012000AC004C005DE
:10049E00C006C007AC37E41202957B0A7AD77923DF
:1004AE00783C1200FBD003D002D001D00012000A1B
:1004BE00E56B25E025E0243EF81203D2056BE56BD3
:1004CE007002056AD39402E56A648094804005E464
:0404DE00F56AF56B5B
:0104E20022F7
:1004E300E4F50AF50BE565FE7C00E42564F536ECDE
:1004F3003EF535C3648094805011C3E49536F536D8
:10050300E49535F535750A00750B011207C3E56DE2
:1005130025E0245CF8A60A08A60BE50B6401450A4E
:10052300AC3270501202957BCD7ACC79CC783D12E7
:1005330000FBC004C005C006C007AC31E41202953D
:10054300D003D002D001D00012000AC004C005C0FD
:1005530006C007AC37E41202957B0A7AD779237871
:100563003C1200FBD003D002D001D00012000A12CB
:10057300027A804CE41202957BCD7ACC79CC783D1B
:100583001200FBC004C005C006C007AC31E4120270
:1005930095D003D002D001D00012000AC004C005D8
:1005A300C006C007AC37E41202957B0A7AD77923D9
:1005B300783C1200FBD003D002D001D00012000A15
:1005C300E56D25E025E0244AF81203D2056DE56DBB
:1005D3007002056CD39402E56C648094804005E45A
:0405E300F56CF56D51
:0105E70022F1
:10099E00E567FE7C00E42566F536EC3EF535C3646E
:1009AE00809480500BC3E49536F536E49535F535D5
:1009BE00AC35AD36EC1202907B9A7A997979784003
:0909CE001200FB1202C90207D954
:1006E900E4FFFEFDFCF50CF50DF50EF50FE56B4588
:1006F9006A60030207C2E56D456C60030207C2FB2D
:10070900FAEB25E02456F8E6F58308E6F5824583F9
:100719007005FE7F01800FE582640145837007FC47
:100729007D018A0A8B0BEB25E0245CF8E6F583084A
:10073900E6F58245837007F50C750D018011E58298
:10074900640145837009F50E750F018A108B110B31
:10075900BB00010AEB64034A70A7EF64014E7028DD
:10076900ED64014C7022E50B25E025E0243EF812EA
:1007790003C6AB3DAA3CA93BA83A120201403A057F
:1007890034E5347002053322E50D6401450C702906
:10079900E50F6401450E7021E51125E025E0244AA5
:1007A900F81203C6AB3DAA3CA93BA83A1202014084
:0907B900080534E5347002053333
:0107C2002214
:1005E800D3E5349409E53394005009E5342430F513
:1005F8000C020672D3E5349463E5339400502DAEB3
:1006080033AF347C007D0A1203638F0EAE33AF34F0
:100618007C007D0A120363AA05E50E2430F50C124E
:100628000980EA2430F50CFB0D0206DED3E534948C
:10063800E7E53394035039AE33AF347C007D641260
:100648000363EF2430F50DFB7D0E7F02120985AEA2
:1006580033AF34120965AE0AAF0B7C007D0A120372
:10066800638C0A8D0BE50B2430FAFB7D100206DE45
:10067800D3E534940FE53394275060AE33AF347C20
:10068800037DE8120363EF2430FB7D0D7F0212091E
:1006980085AE0AAF0B7C037DE81203638C0A8D0BD1
:1006A800AE0AAF0B7C007D64120363EF2430F50DB6
:1006B800FB7D0E7F02120985AE0AAF0B120965AEEB
:1006C8000AAF0B7C007D0A1203638C0A8D0BE50BC5
:1006D8002430FAFB7D107F02020985E4F533F534F6
:0106E80022EF
:1008E300E4F509C2907F1EFE120A8A120A64120AF4
:1008F30037E4FF120AE68F087BFF7A0B79537D01F9
:100903007F01120A0805091209D71203DE1204E354
:100913001206E97FC87E00120A8AE509B405E6E4F7
:07092300F5091205E880DE72
:10000300020335E86480F8E933E83360110460F0F3
:10001300ED33EC337009E8FCE9FDEAFEEBFF220463
:1000230060DED3EB9FEA9EE99DE8C2E78CF0C2F75E
:1000330095F0400CE8CCF8E9CDF9EACEFAEBCFFB2A
:1000430012030085D0F05804700320D5B3E8047080
:10005300075002B2D502033F92D5EC0460F7E4CC1B
:10006300C0E0C398F8603B94186008400DD0E0FBF3
:10007300020317E4FBFAC9FC8028E830E406E4C96C
:10008300FBE4CAFCE830E305E4C9CACBFCE8540747
:100093006010F8C3E913F9EA13FAEB13FBEC13FC52
:1000A300D8F130F52FC3E49CFCEF9BFFEE9AFEEDF5
:1000B30099FDD0E0FBEF4E4D4C701222DB0302039F
:1000C3003CEC2CFCEF33FFEE33FEED33FDED30E77C
:1000D300EB020317EF2BFFEE3AFEED39FDD0E0FB09
:1000E30050130BBB000302033FED13FDEE13FEEFB2
:0800F30013FFEC13FC020317DC
:1000FB00EC4D6011E8497017ED33EC3304600DE4FF
:10010B00FCFFFEFD22E933E8330470F802033512DD
:10011B00030058046009E4CC2481500628500902DE
:10012B00033F28400302033CC0E0EB4A7044B98014
:10013B0006D0E0FB02032BEF4E701CBD8008EBFFDB
:10014B00EAFEE9FD80EBE98DF0A4FEE5F00201E4A7
:10015B00E9CDF9EAFEEBFFEF89F0A4FCE5F0CE89DF
:10016B00F0A42EFFE435F0CD89F0A42DFEE435F09C
:10017B008067EF4E7005BD80D780C3EF8BF0A4ACCA
:10018B00F0EE8BF0A42CFCE435F0F8EF8AF0A42C05
:10019B00E5F038FCE433CB8DF0A42CFCE5F03BF818
:1001AB00EE8AF0A42CFCE5F038F8E433CF89F0A408
:1001BB002CFCE5F038CF3400CE89F0A42FFFE5F00E
:1001CB003EFEE433C98DF0A42EFEE5F039CD8AF066
:1001DB00A42FFFE5F03EFEE43DFD33D0E0FB5007DE
:1001EB000BBB000F02033FEC2CFCEF33FFEE33FE97
:0601FB00ED33FD020317C5
:1002010074F8CC6480CCC86480C8F58204604FC3A4
:10021100EB9FF5F0EA9E42F0E99D42F0E89C45F043
:10022100603C501DE5825FFFE582D313CB5BCBF4CD
:100231002B5582FB50280ABA002409B900200880F6
:100241001DE5825BFBE582D313CF5FCFF4C3132F90
:100251005582FF50090EBE00050DBD00010CC3EB18
:100261009FF5F0EA9E42F0E99D42F0E89C45F0607E
:0902710007CC4820E701B3EC22A0
:10027A00ED33EC33600A047003BD8004ECB2E7FC92
:01028A002251
:10028B0075F020800E75F010800575F0087D007EEE
:10029B00007F003392D530D5031203B8EC334010F6
:1002AB00EF33FFEE33FEED33FDEC33FCD5F0ED22F7
:0E02BB00E5F0247EA2D513CC92E7CDCEFF2233
:1002C900EDD2E7CD33EC3392D524814006E4FFFE2D
:1002D900FDFC22FCE4CFCECDCC24E0501174FF808C
:1002E900EDC3CC13CCCD13CDCE13CECF13CF047029
:0702F900F030D5DE0203B86E
:10030000E9D2E7C933E833F892D5EDD2E7CD33EC43
:0703100033FC5002B2D522BC
:10031700EC30E7100FBF000C0EBE00080DBD000447
:100327000BEB6014A2D5EB13FCED92E7FD2274FFF3
:10033700FCFDFEFF22E480F8A2D574FF13FC7D804C
:03034700E480EF60
:100863000208E3E493A3F8E493A34003F68001F2C0
:1008730008DFF48029E493A3F85407240CC8C33396
:10088300C4540F4420C8834004F456800146F6DF65
:10089300E4800B010204081020408090092AE47EC2
:1008A300019360BCA3FF543F30E509541FFEE4935A
:1008B300A360010ECF54C025E060A840B8E493A321
:1008C300FAE493A3F8E493A3C8C582C8CAC583CA4C
:1008D300F0A3C8C582C8CAC583CADFE9DEE780BE04
:010964000092
:10034A00BB010689828A83E0225002E722BBFE02B1
:09035A00E32289828A83E49322E4
:10036300BC000BBE0029EF8DF084FFADF022E4CC7E
:10037300F875F008EF2FFFEE33FEEC33FCEE9DEC47
:10038300984005FCEE9DFE0FD5F0E9E4CEFD22ED8D
:10039300F8F5F0EE8420D21CFEADF075F008EF2FD7
:1003A300FFED33FD4007985006D5F0F222C398FDC8
:0503B3000FD5F0EA2265
:0E03B800C3E49FFFE49EFEE49DFDE49CFC2256
:0C03C600E6FC08E6FD08E6FE08E6FF2263
:0C03D200ECF608EDF608EEF608EFF62257
:00000001FF
